:1000000000400020010600004106000043060000F9
:1000100000000000000000000000000000000000E0
:100020000000000000000000000000004506000085
:100030000000000000000000470600004906000024
:100040004B0600004B0600004B0600004B0600006C
:100050004B060000000000004B0600004B060000AD
:100060004B0600004B0600004B0600004B0600004C
:100070004B0600004B0600004B0600004B0600003C
:100080004B0600004B0600004B0600004B0600002C
:100090004B0600004B0600004B0600004B0600001C
:1000A0004B0600004B0600000000000000000000AE
:1000B0000000000000000000000000000000000040
:1000C00010B5064C2378002B07D1054B002B02D02E
:1000D000044800E000BF0123237010BDBC090020CC
:1000E00000000000F0800000044B10B5002B03D08E
:1000F0000349044800E000BF10BDC04600000000F6
:10010000C0090020F0800000164B002B00D1144BDA
:100110009D46402292029A1A924600218B460F4633
:100120001348144A121A00F0C3FA0F4B002B00D0E8
:1001300098470E4B002B00D0984700200021040068
:100140000D000D48002802D00C4802F07BFA00F0A8
:100150008DFA2000290000F04BF800F077FAC04635
:100160000000080000400020000000000000000027
:10017000BC0900203C0A002045260000C9390000C7
:1001800080B586B000AFF860B9607A60BB683B614B
:1001900000237B6107E03B691B78180000F0A4F89E
:1001A0007B6901337B617B697A689A42F3D87B680B
:1001B0001800BD4606B080BDB0B586B000AFF8608F
:1001C000B9607A60BB687B6113257C1900F0B2F8D6
:1001D000030023702A00BB181B78002BF4D07B6926
:1001E000BA1812781A7001231800BD4606B0B0BDC7
:1001F00080B582B000AF04237B6013E001227B68EE
:100200009A401100A023DA05A323DB00D15001227C
:100210007B689A40A023DB051100124A99507B6845
:1002200001337B607B680F2BE8DDA023DB050E4AE2
:1002300000219950A023DA05ED23DB000021D150E5
:1002400000233B6000F014F800F096F800F0B2F8DC
:10025000064B3B603B68013B3B603B68002BF9D1A0
:10026000F2E7C0460C05000044070000102700001C
:1002700080B500AFA023DB05154A00219950A023CB
:10028000DA05EC23DB000121D150124A124B182170
:10029000D150104A114B1921D1500E49A223DB0035
:1002A00001225242CA500B49A123DB0001225242D3
:1002B000CA50084A0A4B0B49D150064AA023DB001A
:1002C0000421D150034B01221A60C046BD4680BDB7
:1002D00064070000002000400C0500001405000029
:1002E000240500000050270080B582B000AF020056
:1002F000FB1D1A700D4B01229A600C4A8E235B0085
:100300000021D1500949FB1D1B78094A8B50C0467A
:10031000064A8E235B00D358002BF9D0034B0122F1
:10032000DA60C046BD4602B080BDC0460020004035
:100330001C05000080B582B000AF0E4B01221A6090
:100340000C4A84235B00D358002B0DD0094A842328
:100350005B000021D150074AA323DB00D258FB1DCC
:100360001A70FB1D1B7800E000231800BD4602B088
:1003700080BDC0460020004080B500AFA023DA0554
:10038000A223DB00D2588023DB04134002D1422099
:10039000FFF7AAFFA023DA05A223DB00D2588023AF
:1003A0009B02134002D14120FFF79EFFC046BD468D
:1003B00080BD000090B583B000AFFC1DFFF7BAFF11
:1003C00003002370FB1D1B78002B39D01E4B1B68CC
:1003D000002B19D01D4B180000F0BEF9A023DB053F
:1003E0001B49802292015A50A023DB051849802224
:1003F000D2015A50A023DB051549802212025A501F
:10040000114B00221A601BE0124B180000F0A4F9F7
:10041000A023DA05A123DB0080218901D150A0238C
:10042000DA05A123DB008021C901D150A023DA0520
:10043000A123DB0080210902D150034B01221A6065
:10044000C046BD4603B090BDD8090020507C0000D6
:100450000C050000647C000080B500AF00F036F8A9
:10046000031E06D0134B144A1A60144B802212024A
:100470001A6000F06BF8031E05D08023DA05C12353
:10048000DB000121D15000F087F8031E0ED00C4B89
:100490001B68012B07D00A4B0A4A1A60C046084B5A
:1004A0001B68012BFBD1084BC0221A60C046BD4619
:1004B00080BDC04604050040DFFF07C0186C004047
:1004C00000EC06407593000014EC064080B500AFC8
:1004D0001A4B1B68FF221340012B2AD1184B1B68B3
:1004E0000F22134025D1174B1B68F022134006D171
:1004F000154B1B68F022134001D101231AE0114B68
:100500001B68F0221340102B06D10F4B1B68F02202
:10051000134001D101230DE00A4B1B68F022134068
:10052000302B06D1084B1B68F022134001D1012368
:1005300000E000231800BD4680BDC046E00F00F07B
:10054000E40F00F0E80F00F0EC0F00F080B500AF12
:100550000D4B1B68FF221340012B11D10B4B1B6865
:100560000F2213400CD10A4B1B68F0221340402B82
:1005700006D1084B1B68F022134001D1012300E093
:1005800000231800BD4680BDE00F00F0E40F00F02E
:10059000E80F00F0EC0F00F080B500AF144B1B68C3
:1005A000FF221340012B1ED1124B1B680F22134058
:1005B00019D1114B1B68F0221340A02B06D10F4B11
:1005C0001B68F022134001D101230DE00A4B1B6888
:1005D000F0221340D02B06D1084B1B68F0221340A9
:1005E00001D1012300E000231800BD4680BDC046B4
:1005F000E00F00F0E40F00F0E80F00F0EC0F00F067
:1006000003210A4802680A430260094802680A4353
:1006100002600849084A094B9B1A03DD043BC8588D
:10062000D050FBDCFFF718FFFFF76EFD24050040FC
:1006300054050040FC80000000000020BC090020A0
:10064000FEE7FEE7FEE7FEE7FEE7FEE710B5002166
:10065000040001F085FF044B1868C36B002B00D029
:100660009847200007F0E6FA787C000070B50C4D42
:100670000C4E761BB61005D0002408CD01349847E7
:10068000A642FAD107F0D8FA074D084E761BB610ED
:1006900005D0002408CD01349847A642FAD170BD98
:1006A000B0090020B0090020B0090020B8090020DE
:1006B000F0B5050083074AD0541E002A44D0030039
:1006C0000322CEB202E00135013C3DD301332E704E
:1006D0001342F8D1032C2FD9FF220A4015021543EB
:1006E0002A0415430F2C35D92700103F3F093E013E
:1006F000B4461E001A0010366644156055609560B9
:10070000D5601032B242F8D10F260C2201373F01DA
:100710002640DB193700224217D03E1FB608B4002E
:10072000A4461A001C1D644420C2A242FCD103242A
:100730000136B6009B193C40002C05D0C9B21C19EB
:10074000197001339C42FBD1F0BD3400F4E7140072
:100750000300BFE72700E0E70FB400B5064983B008
:1007600004AB086804CB8168019300F007F803B07C
:1007700008BC04B01847C04600000020F0B5DE46B3
:100780004E4645465746E0B5D7B083468946904623
:100790001C000F9303F080FA036818001C9304F008
:1007A00077FA5B461B90002B03D09B6B002B00D18C
:1007B0005EE24B465B6EDB0700D5BAE04B460C2190
:1007C000595E4B469B899A0500D4AEE08022920187
:1007D000134209D10A434B4649469A81496EDB4B85
:1007E0000B4049464B6693B21A0746D54A461269F2
:1007F000002A42D01A221A400A2A4CD02DAB2A9342
:10080000002300242C932B93159300234646169324
:10081000179400231D931E931A931F9320930993FB
:100820003378C8462DAF002B00D12AE1340003E015
:1008300063780134002B62D0252BF9D1A51BB4427B
:1008400061D12378002B00D11BE1631C06930023A8
:100850001CAAD376012252420892002263785D4698
:1008600014000A92069A013206921A00203A5A2A75
:1008700070D8B74992008A5897464946584601F0C1
:10088000F9FD4B46002801D001F029FC1A229B8972
:100890001A400A2AB2D14A460E21525E002AADDB26
:1008A0004A46526ED20703D49B0501D401F007FAE1
:1008B000230042464946584601F096FD099000F053
:1008C000A5FC280003F0E8F943681800209304F021
:1008D000DFF981461F90280003F0DEF983681A9340
:1008E0004B46002B08D01A9B002B05D01A9B1B7877
:1008F000002B01D001F0FBF8069B1B78B2E7A51B8B
:10090000B44200D1BDE02C9B3E605B192C932B9B25
:100910007D60069301332B93072B10DC0837099B6E
:100920009C46AC44634609938BE74B46986D03F0B5
:10093000BBF94B460C21595E4B469B8946E7414625
:1009400058462AAA04F04CFA002801D001F0D3FC42
:100950002DAFE4E7A246AB461293002B00D190E006
:100960003DAE337000231CAAD37600220E920132D2
:1009700001330B92002207930023089218921392DE
:100980001492022251461140109151460A4202D05F
:10099000079A023207928422514611401191514622
:1009A0000A4205D10A9A0799541A002C00DDD5E0B5
:1009B0002C9C002B11D01CAA1B23944663443B6043
:1009C00001237B602B9B0134199301332C942B93CF
:1009D000072B01DD00F04EFC0837109B002B0ED0DA
:1009E00023AB3B6002237B602B9B023410930133CB
:1009F0002C942B93072B01DD00F047FC0837119B4B
:100A0000802B00D172E3089B0B9A9D1A002D00DD0C
:100A1000ACE35346DB0500D50DE30B9B3E609C46E3
:100A20007B602B9B6444089301332C942B93072BFE
:100A300000DD12E1083753465B0706D50A9B079A8B
:100A40009E1A002E01DD00F02BFC0A9B079A9342B0
:100A500000DA1300099A94469C4463460993002CDB
:100A600000D0B8E300232B930E9B002B03D05846F5
:100A70000E9903F00BF8069E2DAF3378002B00D0B3
:100A8000D4E62C9BC1460693002B01D001F024F83C
:100A900000232B93AEE3303B00201A00069983001D
:100AA0001B185B00D0180B001B7801311A00303A7C
:100AB000092AF4D906910A90D7E612930723A24691
:100AC0000F9CAB4607349C43220018CA1693179418
:100AD000169B179C0F921D000122640064082800D9
:100AE00021001C4B524206F0A3FF002801D000F069
:100AF0006FFD012228002100164B524205F020F91B
:100B0000002801D000F064FD1698179900220023F8
:100B100005F00CF9002801D001F0E5F91CABDB7EF3
:100B2000129A472A01DC00F0B7FF0B4E8022514693
:100B300091437D3A079200228A460E9203320B922D
:100B40000022089218921392149264E1FFDFFFFFD3
:100B5000C07C0000FFFFEF7F807C00002C9A2B9B65
:100B6000D64D102C26DD1021894639004746B04667
:100B70005E4603E0103C0831102C17DD4846103269
:100B800001330D6048602C922B93072BF2DD390066
:100B900030002AAA04F024F9002801D000F0CBFE8E
:100BA000103C2C9A2B9B2DA9102CE7DCB346464613
:100BB000B8460F007C600133A4183D602C942B9341
:100BC000072B01DD00F0A9FE1CABDB7E0837F0E649
:100BD000159B3E60012B01DC00F020FC01237B60B3
:100BE0002B9B01345D1C2C9408932B95072D01DD64
:100BF00000F079FE08371C9B01353B601B9B2B9551
:100C00009C4664447B602C94072D01DD00F078FE47
:100C10000837002216981799002305F081F800285C
:100C200001D000F019FC159B0136013BE418013599
:100C30003E607B602C942B95072D01DD00F0FFFBBF
:100C4000083726AB3B601E9B01359C4664447B60A5
:100C50002C942B95072D00DCECE6414658462AAA39
:100C600004F0BEF8002800D0BDE22C9C2DAFE2E6D7
:100C7000584602F069FE9CE520231C43069B1B7826
:100C8000F0E512930023A2460F9C1CAA40CCAB4671
:100C9000D376002E01D100F009FE089A531C01D131
:100CA00000F0C8FE0021300003F03AFB0E9000284F
:100CB00001D101F0CDF90E9B991BCA43D2170B91BC
:100CC000114000221CABDB7E07910F940E9208921C
:100CD0001892139214929EE0A2460F9C129308CC95
:100CE0003DAE337000231CAAAB46D3760F943CE68E
:100CF0000F9A08CA0A93002B01DB00F016FC0A9B2E
:100D00000F925B420A9304231C43069B1B78A9E5C0
:100D10002B231CAAD376069B1B78A3E580231C43B8
:100D2000069B1B789EE5069B581C1B782A2B01D13D
:100D300001F02FFB1A000021303A0891092A01D94D
:100D400001F0AFF90100002083001B185B00981828
:100D50000B001B7801311A00303A092AF4D90691A8
:100D6000089082E501231C43069B1B787AE51CABA7
:100D7000DB7E002B00D0BFE520231CAAD376069B88
:100D80001B786FE5069B1B78682B01D100F077FD7F
:100D90004022144366E5A24612931024534623438F
:100DA000AB461C00A30600D488E307220F9B073341
:100DB000934319000CC90C920D9301230F9100224B
:100DC0001CA9CA760898421C00D1C9E080222100E3
:100DD00091438A460C990D9A0D00154300D0BEE050
:100DE000002801D000F0D1FD002B62D101331A00A0
:100DF00022400B9256AE234200D0C6E30B9A0899CC
:100E00001CABDB7E07928A4200DA079100220E9229
:100E1000189213921492002B00D1B2E5079A013276
:100E20000792AEE52200129310231A43AB46924676
:100E300053469B0600D44BE307230F9C07349C4387
:100E4000220018CA0C930D940F9253461C4C234059
:100E50001C000023B3E708231C43069B1B7801E515
:100E60002200129310231A43AB46924653469B0628
:100E700000D437E307230F9C07349C4301339C467F
:100E8000A444634622680F9363680C920D93002B71
:100E900000DA33E3089B5446013313D080239C438C
:100EA0000C9A0D9B110019430CD1089B002B0FD1FC
:100EB000A246002356AE08930B939FE72C7E0000BA
:100EC000FFFBFFFF0C9A0D9B002B77D1092A75D8E9
:100ED00063220C9B3DA930338B5401230B931CAB35
:100EE000E7269C46A246664488E70F9BA24604CBB1
:100EF00002240C9200220D925246CC492243140047
:100F000023AA118078220F93C94BAB461D931292EE
:100F1000022354E72300AB469B0601D500F061FC99
:100F20002300DB0601D500F037FD23005B0601D569
:100F300000F0F1FD23009B0501D400F02DFD0F9C76
:100F4000099A08CC069E1A700F9496E5069B1B78AA
:100F50006C2B01D100F09CFC1022144382E4544617
:100F6000012BAFD056AE022B00D167E10723A1467B
:100F7000BA469C460C9A0D9B5F07D5086146D80877
:100F80002F4303003800114034003031013E3A0055
:100F900031701843F0D125004C4657460C920D9302
:100FA000E20743D5302941D03023013E023D337062
:100FB00056AB5B1BCA462E000B931FE78025002310
:100FC000ED002540BA46A94607941F000C9C0D9DD4
:100FD00056AE0BE00A2200232000290004F0CEFECA
:100FE000002D01D100F092FF04000D000A22002321
:100FF0002000290004F0C2FE4B46013E3032327020
:101000000137002BE6D01A9B1B789F42E2D1FF2FBD
:10101000E0D0002D01D000F065FE092C01D900F0D0
:1010200061FE159757460C940D95079C56AB9B1B7C
:10103000A2460B93E2E6129B652B00DCC8E51698EE
:1010400017990022002304F06BFE002800D160E114
:10105000784B01343B6001237B602B9B2C940893DD
:1010600001332B93072B01DD00F074FC0837249B20
:10107000159A934200DB4EE21C9B3B601B9B9C46F7
:101080007B602B9B6444089301332C942B93072B98
:1010900001DD00F0FFFB0837159B5D1E002D00DC15
:1010A000C9E4654A2B9B9146102D01DC00F060FCE1
:1010B000220010264C4605E00837103D102D01DCBB
:1010C00000F054FC103201333C607E602C922B9374
:1010D000072BF1DD414658462AAA03F081FE00287D
:1010E00000D080E02C9A2B9B2DAFE6E70A9B079A55
:1010F0009D1A002D00DC86E44F4A2B9B9146102D53
:1011000023DD22004C46B1465E4603E0103D083721
:10111000102D16DD1021103201333C6079602C92C5
:101120002B93072BF2DD414630002AAA03F058FE2C
:10113000002800D0EAE0103D2C9A2B9B2DAF102DFB
:10114000E8DCB3464E46A14614004A466419013312
:101150003A607D602C942B93072B00DD4BE3089BBA
:101160000B9A08379D1A002D00DC52E4324A2B9B63
:101170009146102D23DD22004C46B1465E4603E029
:10118000103D0837102D16DD1021103201333C6060
:1011900079602C922B93072BF2DD414630002AAA6E
:1011A00003F01EFE002800D0B0E0103D2C9A2B9BCF
:1011B0002DAF102DE8DCB3464E46A14614004A463A
:1011C000641901333A607D602C942B93072B00DD6A
:1011D00068E108371DE4414658462AAA03F000FE9C
:1011E000002800D13EE4C1460E99002902D058469D
:1011F00002F04CFC4B465B6EDB0713D44B469B89DD
:101200009A050BD55B0601D500F074FF099857B01D
:101210003CBC90469946A246AB46F0BD4B46986D05
:1012200002F044FD4B469B89ECE7C0463078000055
:101230008C7C0000BC7C00003C7E00000F200C9ADF
:101240000D9BA446B9461D9F01001140795C1C0707
:101250001509013E2C43317019090B0021002200B1
:101260001943F1D10C920D9356AB9B1B4F46E246AE
:101270000B93C3E5414658462AAA03F0B1FD002866
:10128000B1D12C9C2DAFFFF7A8FB414658462AAAA6
:1012900003F0A6FD0028A6D12C9C2DAFFFF7AFFBD5
:1012A0002B9BC84D102E1DDD1022914603E0103EF1
:1012B0000837102E16DD4A46103401333D607A603F
:1012C0002C942B93072BF2DD414658462AAA03F0B3
:1012D00087FD002800D086E7103E2C9C2B9B2DAF6D
:1012E000102EE8DCA419013360C72C942B93072B34
:1012F00001DCFFF7AAFB414658462AAA03F070FD1D
:10130000002800D06FE72C9CFFF79FFBB346C14637
:101310006AE72499002900DC0CE1149B1D00159B51
:101320009D4200DD1D00002D0CDD2B9B64190893F0
:1013300001333E607D602C942B93072B01DD00F080
:10134000EBFD0837EB43DB171D40149B5D1B002DA5
:1013500000DD4CE3149B9C465346B44465465B0554
:1013600001D500F00CFD249B159A934203DB5246F5
:10137000D20700D4C5E31C9A3A601B9A94467A605F
:101380002B9A6444089201322C942B92072A01DD97
:1013900000F017FE0837159A9446D31A6644701B5E
:1013A0001E00834200DD0600002E0CDD2B9AA419DE
:1013B000089201323D607E602C942B92072A01DD59
:1013C00000F04DFE0837F543ED1735405D1B002D4D
:1013D00001DCFFF730FB7C4A2B9B9146102D00DC93
:1013E000C6E2220010264C4604E00837103D102DBE
:1013F00000DCBBE2103201333C607E602C922B9308
:10140000072BF2DD414658462AAA03F0E9FC0028E2
:1014100000D0E8E62C9A2B9B2DAFE7E7012352463C
:10142000134201D0FFF7DAFB7B602B9B01345D1C7C
:101430002C9408932B95072D01DCFFF701FC414606
:1014400058462AAA03F0CCFC002800D0CBE62C9CFE
:101450002B9D2DAFFFF7F5FB159B5E1E002E01DCCB
:10146000FFF7EFFB584B9946102E05DCE8E20837F2
:10147000103E102E00DCE3E24B463B60102310349C
:1014800001357B602C942B95072DF0DD41465846A5
:101490002AAA03F0A5FC002800D0A4E62C9C2B9DD2
:1014A0002DAFE5E7414658462AAA03F099FC0028EB
:1014B00000D098E62C9C2DAFFFF7ABFAE3066DD574
:1014C0000F9B04CB0C9200220F930D92012376E424
:1014D0005346DB0669D50F9C08CC0C9300230F9470
:1014E0000D93B2E45346DB0600D46DE10F9C08CCAB
:1014F0000C93DB170D930F9400D4CBE40C990D9A49
:1015000000244B4294410C930D942D231CAAD376B6
:1015100054462C3B56E45346DB0701D4FFF78BFAC5
:10152000AAE5A246AB461293A0E4069B0F921B7855
:10153000FFF798F9254B01343B6001237B602B9B1F
:101540002C94089301332B93072B01DD00F0D0FC82
:101550000837002900D027E2524601231340159A8C
:10156000134301D1FFF767FA1C9B3B601B9B9C4612
:101570007B602B9B6444089301332C942B93072BA3
:1015800000DD8EE33A00083221E2302162333DAAC9
:10159000D1541CABE7269C4666442FE4630600D476
:1015A0005AE20F9B04CB92B28CE753465B0600D401
:1015B00059E20F9C08CC9BB20C9300230F940D931F
:1015C00043E4C0462C7E00003C7E0000BC7C000052
:1015D0001698179902000B0006F02AFA002801D08D
:1015E00000F07EFE129B612B01D100F0D1FD412B5A
:1015F00000D1A5E2089B013301D100F00EFE2023AB
:10160000129A9A430B92472A01D100F0E3FD8023FE
:1016100052465B001A4318921699179A002A01DA6B
:1016200000F0B3FD00230D00914619930E93202383
:10163000129A9A43462A01D100F096FC0B9B452B47
:1016400001D000F0CCFC089B2A005C1C28AB049362
:1016500025AB039324AB02930223019400935846D5
:101660004B4601F09BF80600041953460793189B5C
:101670009A46002300222800494604F051FB23002B
:10168000002809D1289BA34206D230215A1C289257
:101690001970289B9C42F9D89B1B15930B9B472BD9
:1016A00000D137E30B9B462B01D100F0B7FC249B04
:1016B0001493149B5C1E0B9B2494412B01D100F0CE
:1016C0001DFE48226B469B1800221B7828201CA96F
:1016D00009180B702B23002C03DA0124149BE41A45
:1016E0002D2329201CA909180B70092C01DC00F0FE
:1016F000E1FD1CAA3723944663441D00BA46B14657
:1017000020000A2104F0F6FA2E003031013D2000BD
:1017100029700A2104F008FA27000400632FEFDC87
:101720004B46B14601001CA81E0037224B4684469A
:101730003031023BC9B2624457461970934201D31B
:1017400000F038FE2A22624400E019781CA81170CB
:10175000844637210133614401328B42F5D139236C
:101760004A4663449B1A2A226244944626AA63444A
:101770009B1A1E93159B1E991A008C4662440B926D
:10178000012B01DC00F0D7FD1B9A0B9B94466344B0
:101790000B93E54B079A1A401300802252001A431C
:1017A00092460B9AD343DB171A40002307921893F3
:1017B00013931493199B002B00D0D9E200221CAB89
:1017C000DB7E0892FFF727FB53465B0600D466E1F9
:1017D0000F9C08CC1BB20C93DB170D930F94FFF7F3
:1017E00056FB0F9C099A08CC069E1A60D2175A60C5
:1017F0000F94FFF742F9414658462AAA03F0F0FA3F
:10180000002800D0EFE42C9C2DAFFFF7FCF8AB468E
:101810001293FFF7C7FAA246AB461293C34B1D9330
:1018200053469B0655D507230F9C07349C43220043
:1018300018CA0C930D940F925346DB070DD50C9AE2
:101840000D9B1100194308D0302223AB1A70129A55
:101850005A70524602231A4392465346B24C2340D2
:101860001C000223FFF7ABFA1293B14BA246AB4622
:101870001D93D5E7A246AB461293FFF7D9FA9933E9
:10188000FF33069A1C43013213780692FEF7EAFFF3
:101890004C3BF6E7414658462AAA03F0A1FA002835
:1018A00000D0A0E42C9C2DAFFFF7F6FB089B07931C
:1018B000062B00D922E1002300220E93079B9D4EA8
:1018C0000B930F9400230892189213921492FFF72F
:1018D00058F85346DB0631D50F9C08CC0C930023F7
:1018E0000F940D93A8E7414658462AAA03F078FAC8
:1018F000002800D077E42C9C2B9D2DAFFFF77BF9BF
:10190000414658462AAA03F06BFA002800D06AE440
:101910002C9C2B9D2DAFFFF77CF9414658462AAAF7
:1019200003F05EFA002800D05DE41CABDB7E2C9C4B
:101930002DAFFFF73EF8B346B94655E453465B0674
:1019400000D49DE00F9C08CC9BB20C9300230F9415
:101950000D9371E7414658462AAA03F041FA002840
:1019600000D040E42C9C2DAFFFF781FBA146140072
:101970004A46641901333A607D602C942B93072BFF
:1019800001DCFFF757F8FFF768F95446012B01D047
:10199000FFF7E8FAFFF79CFA0F9C099A08CC1A6047
:1019A000069E0F94FFF769F81C9B3B601B9B9C46AF
:1019B0007B602B9B6444089301332C942B93072B5F
:1019C00000DD6EE13A000832002900DA97E315994C
:1019D00001338C466444166051602C942B93072B82
:1019E00001DDFFF73AF908321700FFF724F8524AF1
:1019F0002B9B9146102D63DD22004C46B1465E467E
:101A000003E00837103D102D56DD10211032013350
:101A10003C6079602C922B93072BF2DD414630001D
:101A20002AAA03F0DDF9002800D06FE42C9A2B9B42
:101A30002DAFE7E7300003F02BF90100FFF73DF988
:101A40004B46A41901353B607E602C942B95072DE5
:101A500001DCFFF7F5F8F2E4A30500D430E50F9BB5
:101A600004CBD2B22EE553460F9C9B0500D433E540
:101A700008CCDBB20C9300230F940D93FFF7E5F92C
:101A800053460F9C9B0500D427E708CCDBB20C9390
:101A900000230F940D93CFE6284EFFF747F85346E7
:101AA0000F9C9B0500D422E508CC5BB20C93DB179E
:101AB0000D930F94FFF7EBF9B3464E46A146140081
:101AC0004A46641901333A607D602C942B93072BAE
:101AD00000DDFAE008373DE4414658462AAA03F003
:101AE0007FF9002801D1FEF7D3FFFFF783FB8023A6
:101AF000DB001C43069B1B78FEF7B4FE062307930E
:101B0000D9E6159A94466644D31A761B9E4200DCA9
:101B100059E41E0057E40F9C099A08CC069E1A80CF
:101B20000F94FEF7AAFFC046FFFBFFFF8C7C00006E
:101B3000A07C0000B47C00003C7E00007C7C0000A7
:101B4000302223AB1A70283202245A7053461C43A9
:101B5000089B632B00DDF7E200233DAE0E9381234B
:101B60001698179952465B001A431892002900DA1A
:101B70009AE22022129D002395430B95A246050070
:101B800089461993129B612B00D1BDE3412B00D0F4
:101B90004DE5280024AA494602F0E6FFFF23002273
:101BA0009B0505F047F90022002304000D0004F016
:101BB000B7F8002801D001232493E04B0793089B3A
:101BC000B1469C46B44463461393013B1493534679
:101BD0002197C246159306E00022002304F0A0F8E6
:101BE000002800D021E30022D54B2000290005F079
:101BF00021F90D00040005F039FF070005F06CFF26
:101C0000B04602000B002000290005F07FFB424691
:101C1000079B0136DB5D04001370149B0D009B1ABB
:101C20001093139B11964345D6D1159BD0469A46E7
:101C30004B46B1461E00012313975B42219F14922D
:101C40001093002220002900BE4B04F083F80028E6
:101C500000D082E2002220002900BA4B04F060F894
:101C6000002803D0139BDB0700D576E2109B3022BF
:101C700019004944002B0CDB4B4618001A70013345
:101C80008142FAD1119A109B944601339C446346D9
:101C90001193119B9B1B159353460793189B9A46D0
:101CA000FCE4414658462AAA03F09AF8002801D0DD
:101CB000FFF799FA24992C9C2B9B2DAA84E64B467E
:101CC000986D01F0F3FFFEF7F3FD414658462AAA4E
:101CD00003F086F8002801D0FFF785FA2C9C2DAF81
:101CE000FFF738FB1F9B2099F61A1A00300002F00C
:101CF000FDFF1A9920004B788C465A1E93419C4454
:101D000063460A221A932900002304F037F80027BB
:101D1000FFF76AF9249B1493DA1C02DB089A9342BA
:101D200007DD129B023B1A00129320239A430B9269
:101D3000BFE4149B15998B4200DAA0E1079A0B933C
:101D4000D20703D51B9A944663440B93079B5B050C
:101D500003D5149B002B00DD72E20B9AD343DB17F3
:101D60001A4067230792129300231893139321E5D7
:101D70002D231CAAD37600220892FFF74FF8159B5B
:101D800013999C46B44463460B936F4B22009946CB
:101D900053461093189B2C009A4611963B001A9FAD
:101DA000002933D0514600297FD11399013F0139D1
:101DB0001391209919601F998C4659602B996244A0
:101DC000089101312C922B91072973DC08330B9970
:101DD000081B39780D00814200DD0500002D0BDD68
:101DE0002B995219089101311C605D602C922B9146
:101DF00007296BDC39780833E843C01705404D1BD1
:101E0000002D17DC641813990029CBD15146002905
:101E10004BD1119E1A971F00159B1099F3182000A3
:101E200025008A461400984201D8FFF79CFA1D004D
:101E3000FFF799FA2B99102D00DC83E248460890B1
:101E40005846A34644461026B8462700040003E03F
:101E5000103D0833102D15DD484610320131186051
:101E60005E602C922B910729F2DD390020002AAA0E
:101E700002F0B6FF00285CD1103D2C9A2B992DABB7
:101E8000102DE9DC260038005C464746B346804604
:101E900008985219013118605D602C922B91072926
:101EA00054DC397808336418ADE7012149428C4687
:101EB000E2447EE7414658462AAA02F091FF0028F4
:101EC00001D0FFF790F92C9A2DAB80E74146584698
:101ED0002AAA02F085FF002801D0FFF784F939789B
:101EE0002C9A2DAB88E72D231CAAD376FEF718FE7B
:101EF000414658462AAA02F073FF002801D0FFF796
:101F000072F924992C9C2DAFFFF723FB092C01D9E2
:101F1000FFF76AF8FFF785F8414658462AAA02F00B
:101F20005FFF002801D0FFF75EF92C9C2DAFFFF773
:101F300009FAA346B946FFF757F9C046A07C00004E
:101F4000000030400000E03F3C7E00004146584623
:101F50002AAA02F045FF002801D0FFF744F939789A
:101F60002C9A2DAB64184EE728AB049325AB039352
:101F700024AB0293089B2A00019303235846009345
:101F80004B4600F00BFC0600089BF4180B9B462BFD
:101F900001D0FFF76AFB3378302B03D0249BE41881
:101FA000FFF763FB002200232800494603F0B8FE38
:101FB0000028F3D10123089A9B1A2493E418FFF711
:101FC00054FB414658462AAA02F00AFF002801D0D5
:101FD000FFF709F9249B2C9C2DAFFFF7DCF928AB08
:101FE000049325AB039324AB0293089B2A0001932F
:101FF0000223584600934B4600F0D0FB0B9B060093
:10200000472BC1D15346DB075FD452460792189A3B
:10201000289B924647220B92FFF73EFB249A01230E
:102020001492002A00DC94E107990B4008990B43B5
:1020300000D035E1149B0B9366231293079B5B053D
:1020400000D5FFE00B9AD343DB171A4007928BE6CB
:10205000089A1CABDB7E07920F94FEF770FD414699
:1020600058462AAA02F0BCFE002801D0FFF7BBF8B0
:10207000159B249A2C9C9B1A2DAFFFF7A4F91B9A51
:10208000159B944667221292149A63440B93002A7C
:10209000D4DC981A421CD343DB170B921A400792E8
:1020A00062E60690FEF7E1FB2023A246129A9A43CD
:1020B0000B928022169B179C12061D00944623004B
:1020C000634499462D2319935CE5089BF418534605
:1020D0000793189B9A4647230B93FFF7CAFA5B6E48
:1020E000DB0707D44B469B899B0503D44B46986D71
:1020F00001F0DCFD01235B420993FFF787F84D42B5
:10210000103100DB53E1B4491027894621004C46C9
:10211000B1465E4603E00832103D102D3DDD103122
:102120000133146057602C912B93072BF3DD41464C
:1021300030002AAA02F054FE002801D0FFF7E6F88A
:102140002C992B9B2DAAE7E75846591C01F028FE35
:10215000061E00D132E10E9001E5149B07992893E9
:102160004B46013B1A78C97B8A4207D13020187050
:10217000289B013B28931A789142F8D0392A00D144
:10218000E3E00132D2B21A7083E500230E9390E7A8
:10219000302223AB1A704832D6E4B3464E46A146ED
:1021A0000C00494664190133116055602C942B933F
:1021B000072B01DCFFF7E7F9414658462AAA02F04F
:1021C0000FFE002801D0FFF70EF82C9C2B9B2DAAA8
:1021D000FFF7FDFB089B002B01D1013308938023FF
:1021E00052465B00179C1A431892002CCDDB28AB9B
:1021F000049325AB039324AB0293089B58460193A9
:1022000002230093169A179B00F0C8FA00230600D9
:10221000A146169D19930E93F4E62023129A9A4331
:102220001A3B0B920893FFF7F2F943461493159B60
:10223000D0469A464B461397B146219F1E0000E5B3
:10224000672312931A990B78FF2B00D1BFE000226D
:1022500018921392149A05E01398013101301390EB
:10226000FF2B0AD0934208DAD21A4B78002BF3D115
:10227000189B013318930B78F2E71A911492189A6D
:10228000139B94461F9A634453430B9A94469C4471
:102290006246D343DB170B921A400792FFF78AFA84
:1022A0001B9B9C4662448C46944463460B93662376
:1022B0001293C3E61CA92A238C466344002A06D144
:1022C0000A002A21302352181370053B6344200072
:1022D0003030187026AA01339B1A1E93FFF74AFA72
:1022E000179B002B51DB1CABDB7E129A472A49DD82
:1022F0003A4EFEF71BFCC146FEF77CFF129B012203
:102300000F33DBB2FFF7E2F9280024AA494602F0B6
:102310002BFCFF2300229B0504F08CFD00220023F0
:1023200004000D0003F0FCFC002801D001232493DD
:102330002B4B079343E4079BDB0701D4FFF729FAF4
:10234000FFF722FA24480890A2E5079A927A1A70B9
:102350009FE4079A1340089A134306D10123079379
:1023600065331293653B0B93FEE494461B9B581C0C
:1023700084446246D343DB170B921A4066230792CC
:102380001293F1E4174EFEF7D1FB2D231CAAD3764E
:10239000ABE70F9A08CA0893002B02DA01235B42CD
:1023A0000893069B0F925B780690FEF75BFA0A494A
:1023B0008946F6E602231E93FFF7DCF943469A8925
:1023C000402313434246C1469381FEF713FF002387
:1023D0001893139353E7C0463C7E0000887C0000AE
:1023E0008C7C0000847C0000F0B51F0002231F4C91
:1023F0001500A5440C0089896A4699436B4699816A
:10240000636E80211993E3890600D381E369C900D3
:102410000793636A16A809931AAB009304930023E9
:1024200002910591069301F03BFC2A003B006946AE
:102430003000FEF7A3F9051E0EDA6B469B895B069A
:1024400003D54022A3891343A381169801F02AFCE7
:102450002800074B9D44F0BD6946300001F00EFA9C
:102460000028EAD001256D42E7E7C04694FBFFFF54
:102470006C040000334B70B5050018680C00002890
:1024800002D0836B002B3DD00C23E25EA389190799
:102490000DD52169002915D0D80724D50020A060CA
:1024A00060694042A0610020002924D070BDD90697
:1024B00040D55B0729D4216908231A43A28193B22E
:1024C0000029E9D1A02080268000B6001840B04243
:1024D000E2D02100280001F01BFC0C23E25EA3895E
:1024E0002169D807DAD400209D0700D46069A06074
:1024F00000200029DAD11B06D8D540231A43A28137
:102500000138D3E701F020FABEE7216B00290AD099
:1025100023004033994204D0280001F0B7FA0C237D
:10252000E25E0023236324239A430023216963602E
:102530002160C1E709232B60402301201A43A281B7
:102540004042B3E700000020034B10B5002B02D03F
:10255000024800F077F810BD00000000C939000003
:10256000F0B5DE464E4657464546E0B5334B83B0A0
:102570001B680190180000930F0001F095FB304B91
:102580001B681A000093A4235B00D65801229946C9
:102590009346002E30D07468651E2DD4C4235B0092
:1025A0009A460134A4003419B24402E0043C013DCF
:1025B00022D3002F04D080235B00E358BB42F5D127
:1025C00073682268013BAB4232D000232360002AAB
:1025D000ECD07368514698465B46AB400968194297
:1025E00015D19047736843451ED14A46009B9B58BE
:1025F000B342DBD01E1ECED1104B186801F056FB43
:1026000003B03CBC90469946A246AB46F0BD3100B3
:102610008D31FF31096819420CD180230198E158AE
:10262000904773684345E0D04A46009B9E58B0E708
:102630007560CCE78023E0589047D3E73004002052
:10264000787C000010B5010000230022002002F079
:10265000E5FB10BDF0B54546DE4657464E46E0B5B3
:1026600003690D6985B080460A000191AB4200DA2A
:1026700091E0142141448C46013D1432AB00D61840
:10268000634403931B6800919A46336850465F1C6D
:102690003900029203F0BEF90400BA453CD300238E
:1026A000002118008C46A946009F029A08CA190406
:1026B000090C61431B0C634309180D0C5D193B6841
:1026C00009041B041B0C6344090C591A3B68280CB1
:1026D0002D042D0C1B0C5B1B0D145B1909041D1420
:1026E000090C1B040B43AC4608C79642DED2039B81
:1026F0004D461A680392002A0ED1009A043B934279
:1027000008D9009A03E0043B013D934202D91968BD
:102710000029F8D043461D614046019902F000F9B6
:10272000002830DB002301341F00A44600990298E2
:102730000B6810C81A04120CD7192204120CBA1A0A
:102740001B0C270CDB1B1714DB1912041F14120CB3
:102750001B04134308C18642EAD2009A6446944699
:10276000AB006344196800290DD1043B934208D99A
:10277000009A03E0043B013D934202D91968002905
:10278000F8D043461D61200005B03CBC90469946F8
:10279000A246AB46F0BD0020F6E7C046F0B557466E
:1027A0004E464546DE461400E0B51D00016C9BB068
:1027B000824604940595279E002909D00123426C86
:1027C00093404A608B6001F06FFE00235246136411
:1027D0002F1E00DA02E200233A003360C04B1A4099
:1027E0009A4200D105E2049A059B100019000022CC
:1027F00000230A900B9103F093FA002812D00123D2
:10280000269A1360289B002B00D121E3B54818605D
:10281000431E039303981BB03CBC90469946A246C6
:10282000AB46F0BD18AB019319AB009350460A9A22
:102830000B9B02F03BF93E0D834600D0EBE1189B69
:102840009846199B43441E00A74BF318202B01DC2C
:1028500000F00FFC40223800D31A9840A34BF21826
:10286000D440204305F068F90123A14C013E091929
:102870000F9300229F4B04F049FD9F4A9F4B04F0A9
:10288000D9FA9F4A9F4B03F065FB040030000D000E
:1028900005F022F99C4A9D4B04F0CCFA02000B0093
:1028A0002000290003F056FB04000D0005F0DEF8BF
:1028B00000220700069000232000290003F036FACA
:1028C00000280AD0380005F007F92B00220003F099
:1028D00027FA434258413B1A0693069C162C00D90E
:1028E00092E20A980B998A4BE2009B181A685B687F
:1028F00003F01CFA002800D15FE200230E93434648
:102900009E1B00230C933300013C0694013B08936B
:1029100000D584E2069B002B00DB58E2069B0C9A54
:102920000993D21A0C925A4200230693249B914693
:10293000092B00D958E20125052B02DD0025043BB7
:102940002493249B042B01D100F0C2FC052B01D160
:1029500000F07BFC022B00D067E200230D93259B47
:10296000002B01DC00F08AFC1C0014930793002369
:102970005246536401220433172C01DC00F0CAFED6
:102980005B001800143011000132A042F8D9534600
:10299000079C5964504601F05FFD5346039018644C
:1029A0000E2C00D952E1002D00D14FE109980028EA
:1029B00001DC00F0EEFC0F210200554B0A40D20072
:1029C0009B1806111C685D68C30501D500F072FCF8
:1029D0000A9A0B9B1092119302239846002E11D055
:1029E0004C4F0123334209D09C463A687B68200053
:1029F0002900E04404F01EFA04000D0076100837A8
:102A0000002EEED11098119922002B0003F00CFE3D
:102A100006000F000E9B002B09D000223000390069
:102A20003D4B03F083F9002801D000F0E1FD404662
:102A300005F052F832003B0004F0FCF90022374B5D
:102A400003F088FA364A0B009446634412901391BF
:102A50001393079B002B01D100F050FC099B1593A9
:102A6000079B10930D9B002B01D100F026FD109BBE
:102A700000205A1E264BD2009B181A685B68294911
:102A800003F0D2FD129A139B04F040FC12901391B4
:102A90003000390004F0EAFF169005F01DF802003E
:102AA0000B003000390004F031FC039B169E5A1CC9
:102AB000303604000D0090461E7002000B00129884
:102AC000139903F047F9002801D000F0EDFD4B46C3
:102AD000002717935B46BB46129E139F169358E040
:102AE0000000F07FBD7C00003204000012040000F2
:102AF000000010FE0000F83F61436F63A787D23FDC
:102B0000B3C8608B288AC63FFB799F501344D33FDC
:102B1000887E0000607E00000000F03F00001C4046
:102B20000000C0FC0000E03F01239C46109BE344F2
:102B30009B4500DB86E0002230003900C64B04F0E4
:102B400079F90022C44B06000F002000290004F090
:102B500071F90D00040004F089FF814604F0BCFF08
:102B600002000B002000290004F0D0FB0123040028
:102B700048465A469C46039B3030985432003B00EE
:102B800020000D00E04403F0D1F8002801D000F04F
:102B900089FD22002B000020B04904F0B7FB320071
:102BA0003B0003F0C3F80028BED0169B42469B466C
:102BB000159B0399099303E0914201D100F048FD70
:102BC0001400013A1378392BF6D090460133DBB26A
:102BD00042461370099B013309932CE201236F00D5
:102BE0007F083A0033609E4B05971A409A4200D006
:102BF000F9E5269A9B4B13603A03120B14431AD142
:102C0000289B002B01D100F081FD974B03930833E3
:102C1000289A1360FEE50A9B0B9C904A1800230338
:102C20001B0B1A43914B11009C46189B6644984617
:102C300000230F931DE6289B002B00D001E38C4B53
:102C40000393E7E5179B9946169B9B46199B002B20
:102C500000DA89E0099A0E2A00DD85E0854BD20072
:102C60009B181E685F68259B002B1CDA079B002BB6
:102C700019DC079B002B00D05FE3002239007E4B5C
:102C8000300004F0D7F80B0002000A980B9903F00B
:102C900057F8002300279946002800D19CE2259B85
:102CA000039DDC43A0E232000A9C0B9D3B00200008
:102CB000290003F0B9FC04F0D9FE814604F00CFFB2
:102CC00032003B0004F0B6F802000B00200029009F
:102CD00004F01CFB039A531C98464B463033137088
:102CE000079B012B00D1B7E3013A0123049252461E
:102CF000C2460692984623E001239C4632003B00E0
:102D000020002900E04403F08FFC04F0AFFE814670
:102D100004F0E2FE32003B0004F08CF802000B00ED
:102D20002000290004F0F2FA01239C464B46444659
:102D3000049A30331355079BE244434500D188E39E
:102D40000022454B04F076F80022002304000D0019
:102D500002F0E6FF0028CFD0069BD0469A46099B9A
:102D600044460133099366E10D9A002A00D187E0B9
:102D7000249A012A00DCE4E2079B5D1E4B46A9452C
:102D800000DB95E2069AEB1A94469C446346A946FA
:102D9000002506930C99079BCC1A002B07DB089A99
:102DA0009C4610000C006044614408900C91012185
:102DB000504601F00FFC070065E043469E1B3300C0
:102DC000013B089300D518E300230E930C93069B58
:102DD000089A9C460993002311009946249B61445C
:102DE0000891092B00D8A6E5012400230122012522
:102DF000644224930D920794259300235246536412
:102E0000079B00211493C5E501230E9343469E1BA7
:102E100000230C933300013B089300D47AE501238F
:102E20009B1B0C930023089374E500230D93249BB4
:102E3000032B01D000F057FC099A259B944663446C
:102E4000149301331C1E079300DD90E501248EE5E9
:102E50000A4B0393DEE4C046000024400000F03F2C
:102E60000000F07F0F270000507E000001FCFFFFF4
:102E70004C7E0000887E000000001440BC7C0000F6
:102E80004D4600270C9C002C0DDD089A002A0ADD17
:102E90002300944200DD09E20C9AE41AD21A0C9243
:102EA000089AD31A08934B46002B1BD00D9B002B7E
:102EB00000D1BFE1002D10DD39002A00504601F09D
:102EC00059FC5A4601000700504601F08DFB0600F0
:102ED0005946504601F0E8FAB3464B465A1BA945FD
:102EE00000D0A8E10121504601F074FB069A81460A
:102EF000002A00DDC3E0249B0025012B00DCA7E1B4
:102F0000069B0120002B00D0C3E01F2308991A0064
:102F10008C4660440240034200D19DE001339B1A7D
:102F2000042B01DC00F0FAFB1C239B1A0C9AE4181A
:102F300094469C4462468C469C4463460C9208939B
:102F40000C9B002B05DD59461A00504601F072FC1F
:102F50008346089B002B05DD49461A00504601F0C8
:102F600069FC81460E9B002B00D049E1079B002B9A
:102F700000DC1DE10D9B002B00D09CE0099B013380
:102F80000993039B079A5D1E4B46A846B9465546D2
:102F900001245E4692461F0007E0310000230A220A
:102FA000280001F08BFA0600013439003000FFF7E9
:102FB00051FB4346303018555445EEDB3B004F463D
:102FC0009946079BB346AA4601240690002B00DDD4
:102FD0001C00039B00269C4664445946012250462F
:102FE00001F028FC4946834601F09AFC002800DCE9
:102FF000C2E1651E2A782B00039906E0013BA94235
:1030000000D1B2E11A782C00013D392AF6D0013204
:103010002A704946504601F047FA002F0BD0002E87
:1030200005D0BE4203D03100504601F03DFA3900D0
:10303000504601F039FA5946504601F035FA00235E
:10304000099A2370269B1A60289B002B01D1FFF759
:10305000E1FB1C60FFF7DEFB1C230C9AE41894468E
:103060009C4462460C92089A94469C44634608939A
:1030700066E720222000D31A9840FFF7F3FB0100F7
:10308000504601F077FB249B81460025012B00DC94
:10309000B6E14B461B6903339B004B44586801F073
:1030A0004FFA2023181A30E7249B022B00DD12E38D
:1030B000149B09960793099B01330993002C05DDA6
:1030C00039002200504601F0B5FB0700B846002D3C
:1030D00000D0DEE1079A039B94461D00013B9C440F
:1030E0006346089301232E005D46CB46049A1A409E
:1030F000079259462800FFF7ADFA03003900303334
:103100000C902800069301F00BFC5946040042463F
:10311000504601F021FCC36881460100002B3BD1E1
:10312000280001F0FDFB49460490504601F0BCF92F
:10313000049A249B1343079A134300D19AE2002C6C
:1031400000DA67E1249B1C43079B1C4300D161E12B
:10315000049B002B00DD39E2069A741C3270089A39
:10316000B24200D13FE2290000230A22504601F07A
:10317000A5F9002305000A2239005046474511D021
:1031800001F09CF94146070000230A22504601F055
:1031900095F926008046ACE7504601F085F90123F9
:1031A0000493CCE701F08AF9260007008046A0E7E7
:1031B000249B022B67DD079B002B00D06FE549465F
:1031C0000522504601F07AF981460100584601F087
:1031D000A7FB002800DC62E5039A31231500099C57
:1031E0001370531C013403934946504601F05CF9B7
:1031F000631C0993039C0395002F00D017E71AE77F
:103200004946584601F08CFB002800DBAEE6099BDE
:1032100059460A2250465E1E002301F04FF90D9BCD
:103220008346002B00D044E2149B002B00DC4DE2CF
:103230000793A6E64A465946504601F09BFA834654
:1032400050E6D84B03930333E2E401230D93F3E5F7
:103250000499059A002900D052E61300120300D009
:103260004EE6D14A0025134200D149E60C9B0135B8
:1032700001330C93089B0133089341E60123012499
:1032800007932593B9E50D9B002B00D013E7494622
:103290005846FFF7DFF90300039A303306931370A3
:1032A000099B00260133541C099396E61300F3E5AD
:1032B0005D1B6FE5BD4B0E401A6A5B6A0A980B995D
:1032C00003F0B2F90323109011919846FFF786FBA3
:1032D00001230D93FFF743FB404604F0FDFB320052
:1032E0003B0003F0A7FD0022B14B02F033FEB14AD0
:1032F0000B00944663441290139113930022300004
:103300003900AD4B04F002F8129E139F32003B00CF
:1033100004000D0002F01EFD002800D0A6E1802070
:1033200000068446390061440B0032002000290069
:1033300002F0FCFC002800D188E400230027994615
:10334000ADE40F9A002A00D127E19C4A94466344D9
:10335000089A4D4694469C44624608920C9A9446BC
:103360009C44634614000C9321E53123039A1370A7
:10337000099B013309934CE6002803D1069BDB0728
:1033800000D536E623001C00013B1A78302AFAD01B
:103390003FE6099B002B00D154E10A980B995C424F
:1033A0000F23874A2340DB00D3181A685B6803F0B9
:1033B00041FD241106000F00002C00D18FE10222F4
:1033C0001096119700231700784D0122224205D054
:1033D0002A686B6803F02EFD01230137641008355D
:1033E000002CF2D1B846109E119F002B01D1FFF79F
:1033F00011FB06000F00FFF70DFB00230E930EE5F7
:103400000499059A002900D043E61300120300D165
:1034100027E73EE6049BD946AB463500002B12DD7C
:1034200059460122504601F005FA4946834601F00B
:1034300077FA002800DC27E1069B392B00D10EE14A
:103440000C9B31330693069B3E006C1C47462B7049
:10345000DFE5069BD0469A4602000B0002F07AFD9B
:1034600032003B0004000D0002F074FC00280CD177
:1034700032003B002000290002F052FC002800D15D
:103480006DE44B46DB0700D469E442460399FFF73D
:1034900097FB7968504600F0DFFF390004003B6974
:1034A0000C319A1C92000C3000F074FF01222100B4
:1034B000504601F0BFF980460CE6109B4049013BA5
:1034C000DB00C91808684968129A139B03F0B2FC24
:1034D000129013913000390004F0C8FA169004F0ED
:1034E000FBFA02000B003000390003F00FFF039AD3
:1034F0000D00511C88461100169E109B3036167028
:103500008C461A006244040046461092012B1DD0DE
:10351000109B984600222B4B2000290003F08AFCC8
:103520000D00040004F0A2FA070004F0D5FA02002E
:103530000B002000290003F0E9FE30373770013618
:1035400004000D00B045E5D1109B9846129E139FD4
:1035500000221D4B3000390002F0FCFC22002B0041
:1035600002F0E4FB002800D096E032003B0000208F
:10357000154903F0CBFE22002B0002F0EBFB0028E4
:1035800001D1FFF763FB43461C00013B1A78302A48
:10359000FAD0159B013309934DE53623189A9B1AEF
:1035A000D6E6C0464C7E00000000F07F607E000042
:1035B00000001C400000C0FC000014403304000068
:1035C000887E0000000024400000E03F069BD946B2
:1035D000AB463500392B42D0069B741C0133337047
:1035E0003E00474615E5D9463E00AB464746F4E463
:1035F000079B002B00D16FE6149C002C01DCFFF729
:1036000025FB099B0022013B300039001593474BF5
:1036100003F010FC060040460F00013004F05CFA95
:1036200032003B0003F006FC0022414B02F092FC0A
:10363000404A0B00944663441290139110941393E4
:10364000FFF710FA02230A9E0B9F9846FFF7E2F954
:10365000099B9046013309933123FFF7B9FA3923C7
:103660003E00392247466C1C2B70C4E4002300271F
:103670009946B1E5069BD946AB463500392BEED0CD
:10368000002C00DDDCE6DEE6002800D0DBE6069B51
:10369000DB0700D5D0E6D6E6159B42460399099391
:1036A000FFF78EFA169B9B46159B44460133099300
:1036B000C1E4002339000A22504600F0FFFE149BAB
:1036C0000700002B00DCEFE40793F7E4249B022BB8
:1036D00001DC0996DBE5149B099607936BE5022351
:1036E0009846FFF797F953460D9A00215A645046C1
:1036F00000F0B2FE53461864002301222593013BDB
:10370000039014930D920793FFF7A0FA0A4B0393CB
:10371000FFF780F80021079CFFF73CF9042B01D14B
:10372000FFF70EFC3C239B1A97E4C04600002440A0
:1037300000001C400000C0FC507E0000F0B5C646F2
:103740000C0000B5A28980460C23C95E13074CD437
:10375000802362681B010B43A381002A66DDA66AF1
:10376000002E3ED042464146156800220A609AB2B9
:10377000DB0460D4012300224046E169B047431CCA
:1037800068D0A289A66A530706D56368C01A236B5E
:10379000002B01D0E36BC01A00230200E169404610
:1037A000B047431C49D143461B68002B45D01D2B15
:1037B00001D0162B57D1A3892F4A1340A381002390
:1037C0006360236923604346216B1D60002908D094
:1037D00023004033994202D0404600F057F90023BD
:1037E0002363002004BC9046F0BD2669002EF8D06B
:1037F000236826609D1B0023920700D16369A360A4
:10380000002D04DCEDE736182D1A002DE9DD2B0024
:1038100032004046E169676AB8470028F3DC40227D
:103820000120A38940421343A381DBE7E26B002A16
:1038300000DD94E7D5E7206DA5E7A3890E4A134084
:103840000022626022691BB2A3812260DB04BAD528
:103850002065B8E743461B68002B00D191E71D2B7C
:1038600006D0162B04D04022A3891343A381B9E7C5
:10387000434600201D60B5E7FFF7FFFF70B5050068
:103880000C00002802D0836B002B15D00C22A35E05
:10389000002B17D0626ED20701D49B0514D52800E7
:1038A0002100FFF74BFF636E0500DB0702D4A389FD
:1038B0009B0515D5280070BD00F046F80C22A35ECC
:1038C000002BE7D10025F5E7A06D00F0EDF9280009
:1038D0002100FFF733FF636E0500DB07EAD4E6E75C
:1038E000A06D00F0E3F9E5E7002310B504000360E4
:1038F00043608360818143660021C28103610822A5
:10390000436183615C30FCF7D3FE2000064BE46129
:103910002362064B58306362054BA362054BE3629A
:1039200000F0BEF910BDC046F14B0000194C00007C
:10393000594C0000854C000010B5024900F088F990
:1039400010BDC046494F000070B50400144D28005A
:1039500000F0AAF9A36B002B1DD1124A0421E263E7
:10396000B8229200A350B92303229B00E2500833EF
:10397000E218043BE25060680022FFF7B5FF012225
:103980000921A068FFF7B0FF02221221E068FFF7CB
:10399000ABFF0123A363280000F088F970BDC04687
:1039A000200A00203939000010B5024800F07CF9E7
:1039B00010BDC046340A002010B5024800F076F968
:1039C00010BDC046340A002070B5074D074C641B7B
:1039D000A41005D0013CA300EB589847002CF9D166
:1039E00004F030F970BDC046B8090020BC090020C1
:1039F000F8B50C00050000F01FFD204FBB685E68A5
:103A000003239E431E4B341B9C466444240B013C01
:103A1000113324039C4207DB0021280001F0D6F873
:103A2000BB689B19984204D0280000F00DFD0020CF
:103A3000F8BD2800614201F0C9F8431C0DD00122F5
:103A4000BB68361B16435E600E4B28001A68141BB9
:103A50001C6000F0F9FC0120EAE70021280001F0D9
:103A6000B5F8BA68831A0F2BDEDD07490968401ADA
:103A70000449086001210B435360D5E7340400205A
:103A8000EF0F0000DC0900203C080020F0B5C6461E
:103A900005000C0000B500294FD000F0CDFC21003E
:103AA00008394C68012622000320B2438F187B6836
:103AB0008343624898468368BB426BD043467B6031
:103AC00026421ED108239C460C688444091B121907
:103AD0008C6864454FD0CB68E3609C604346FC181B
:103AE0006468344211D1BB68554C4244A34200D1B2
:103AF0007FE0FC68DC60A360012313434B608A50C5
:103B000006E0FC1864683442EDD016434E603A601B
:103B100080239B009A4213D25409D3080122A24069
:103B20004468DB002243426018188368C8608B60D9
:103B30008160D960280000F087FC04BC9046F0BD8D
:103B4000530A042B3FD89409260039343836E40050
:103B500004192368083C03279C4243D05868B843A3
:103B6000904202D99B689C42F8D1DC68CC608B60A3
:103B7000A160D960DEE74346F8184068304258D16A
:103B80001300B868FA6843441E43C26090604E60F8
:103B9000CB50CFE713004344264206D10A68891A66
:103BA0008C689B18CA68E260946001221A434A60DC
:103BB000244A816012689A42BCD8234B28001968B5
:103BC000FFF716FFB6E7142B07D9542B1AD8140B9E
:103BD00026006F346E36E400BAE71E005C335B36B5
:103BE000DC00B5E70122B610B240466832434260BD
:103BF000BCE7D9609960CB608B60012313434B60B5
:103C00008A5097E7AA246400A34205D8D40B260063
:103C100078347736E4009BE70C4CA34205D8940C2B
:103C200026007D347C36E40092E7FE247E26A40044
:103C30008EE7330013434B603A607BE73404002087
:103C40003C040020400800200C0A0020540500001D
:103C5000F8B54746CE4680B5B82780468946002647
:103C6000BF0047447B68BC685D1E0DD4A389012B4F
:103C700007D90E22A35E013303D021004046C84776
:103C800006436834013DF1D23F68002FEAD130008D
:103C90000CBC90469946F8BD004870473409002096
:103CA0007047C0467047C0467047C0467047C04620
:103CB00070B50C001E000E23C95E150096B00029D9
:103CC00015DB6A4601F028FA002810DBF022019B80
:103CD000120213400D4A8020944663445A425341D5
:103CE00033608023DB002B60000116B070BD002321
:103CF0003360A3891B0603D5402300202B60F4E723
:103D00008023DB0000202B60EFE7C04600E0FFFFD0
:103D100070B58B8905000C0082B09B0707D5230086
:103D20004333236023610123636102B070BD6A469F
:103D300001ABFFF7BDFF00990600280000F030F846
:103D4000002810D08022154BEB63A3892060134319
:103D5000009A1BB26261019AA3812061002A0CD1F2
:103D60003343A381E1E70C22A35E9A05DDD403224D
:103D7000934302221343A381D1E728000E23E15E7F
:103D800001F056FB002802D10C22A35EE8E70323D2
:103D9000A2899A43012313431BB2E1E7393900009A
:103DA000F0B54E464546DE465746E0B50D000B35AC
:103DB000060083B0162D22D8102900D9B2E000F0F9
:103DC0003BFB102502201823CB4FFB181A005C6820
:103DD000083A944200D1B5E0032362689A43130085
:103DE000E268A168CA6091600122E3185968300056
:103DF0000A435A6000F028FB2000083095E00723B2
:103E00009D4300D58EE0A94200D98BE000F014FB61
:103E1000FC235B009D4200D2A5E1680A00D18BE043
:103E2000042800D978E138239846A809804439301D
:103E3000C100B14F79184C680839A1420ED0032354
:103E40009C4604E0002ACBDAE468A14206D0624630
:103E5000636893435A1B0F2AF4DD40463A003C69DD
:103E60000832944200D178E003236168994389467F
:103E70000B00491B0F2900DD79E17A613A610029C5
:103E8000B2DA80229200914500D30EE15909DA0896
:103E900001238B40D2007968D2190B4391687B6073
:103EA000E260A1609460CC6001218210914099424F
:103EB00059D80B4205D103229043490004300B42EC
:103EC000FBD003239846C3009946B944CC468246AA
:103ED0006346DC68A44507D12AE1002A00DB33E110
:103EE000E468A44500D123E14246636893435A1B2A
:103EF0000F2AF2DD01208046611905436560A06844
:103F0000E5680837C560A86040461043F960B960AD
:103F10004860CF6030008F60E25000F095FA2000DA
:103F2000083002E00C230020336003B03CBC904614
:103F30009946A246AB46F0BD80213F2340209846DB
:103F4000890076E7DC680230A34200D044E73A00FB
:103F50003C690832944200D086E701217B688210D8
:103F600091409942A5D90323BC6862689A4391465F
:103F7000954203D8531B0F2B00DD88E023004B44F0
:103F80005E4A01935E4B93461B681268EB18013240
:103F900000D13BE15B4A944663441B0B1B03009337
:103FA0003000009900F012FE03008046013300D17A
:103FB000F8E0019B834200D9F2E0534B19009A4686
:103FC0000968009B8C46514663440B6001991A00B6
:103FD000814200D150E15B461B68013300D155E1BD
:103FE000434601995B1A9A1853461A6007234246C2
:103FF00041461A400192194200D111E10823984626
:10400000881A424B0099804441449B1A5B1A1B0555
:104010001B0D0091300019009B4600F0D7FD431C9A
:1040200000D14FE14346C01A03005B44009353465E
:1040300052461B6801215B44136042464046BA6009
:10404000009A0A434260BC4200D123E14A460F2A4B
:1040500000D821E107200C3A824360680140052026
:1040600011436160A118486088600F2A00D934E1CB
:1040700042464446526826490868984200D20B607E
:1040800024490868984200D38EE00B608CE001223E
:10409000290013431143651961603000BD606B60F6
:1040A00000F0D2F9200008303FE75A0A042A71D9FB
:1040B000142A00D9C4E011005C325B31D20008231D
:1040C0005B429C46BA18944463469A680323984618
:1040D000944500D19DE0434651689943494502D932
:1040E00092689445F7D1D3689C467B686146A2608C
:1040F000E1608C60D460D7E6340400203C080020E6
:104100000C0A00200F100000DC090020081000003D
:10411000040A0020080A0020142852D9542800D983
:1041200096E06E239846280B80446F30C10080E6ED
:1041300008239B46073BDC449B46DA4443465246F1
:10414000134200D0C4E64CE00122E3185968300065
:104150000A435A60E368A268D3609A6000F074F979
:1041600020000830E1E62B00E80808332CE60123A4
:1041700060191D43656078613861C26082601A0011
:104180004B460A4342603000E15000F05DF92000E8
:104190000830CAE69A09110039323831D2008EE768
:1041A000BC4260D0BC68626803239A43531B9542AB
:1041B00002D80F2B00DD6AE7300000F045F900203F
:1041C000B3E65B23984680445C30C10031E60823A7
:1041D0005B429C46E1444B469B6801384B4500D00E
:1041E00098E043460342F2D17B688B437B604900F1
:1041F000994200D9B7E6002904D1B4E604229446D6
:104200004900E2440B42F9D050465CE6103300937B
:10421000C6E68910023B8B4079680B437B6065E7FB
:10422000009B300043445B421B051B0D19009B465D
:1042300000F0CCFC431C00D0F4E600239B46F6E6DD
:10424000542A2BD81A0B11006F326E31D20036E788
:10425000AA235B0098422BD8DD3B9846E80B8044AC
:104260007830C100E5E52C4B009A9A461B689C46C5
:10427000534662441A60AEE6090500D0ABE6009AE8
:10428000BC684A4401310A436260F4E65B46424638
:104290001A60ABE64446EEE641608DE7AA2149008C
:1042A0008A4224D8DA0B110078327731D20006E73F
:1042B0001A4B984224D87C239846A80C80447D3021
:1042C000C100B6E5009A019B94464246083B634410
:1042D0009B1A009300239B46A9E621003000083179
:1042E000FFF7D4FB5346BC681B686268C3E60B4902
:1042F0008A420BD89A0C11007D327C31D200DEE666
:10430000FE217E237F209846890092E5FE227E21B1
:104310009200D4E67B686AE7DC09002054050000BF
:1043200070B5CCB283070DD0531E002A0FD00325E1
:1043300004E00130284206D0013B08D30278A242B3
:10434000F7D170BD1300032B0CD8002B01D1002036
:10435000F7E7C31802E001308342F8D00278A242A6
:10436000F9D1EEE7FF220D062D0C114029430D0473
:10437000064E0D43026806496A4051189143314286
:10438000E7D1043B0430032BF4D8DEE78080808043
:10439000FFFEFEFEF0B5C64600B50F2A41D9032741
:1043A0000D003E0005430C0003002E402F423DD17E
:1043B0001500103D2D09AC462D01A8468044256806
:1043C00067681D605F60A568E7689D60DF60103406
:1043D0001F0010334745F2D165460F230C240135E9
:1043E0002D01491913404519144222D08C59AC5162
:1043F00004369C1B032CF9D80324043B9B0801338F
:104400009B002240ED18C918561E002A06D0002332
:10441000CC5C1A00EC5401339642F9D104BC9046AE
:10442000F0BD0500561E002AF1D1F7E70500561E23
:10443000EDE71A00F6E7C04610B50248FFF734FC76
:1044400010BDC046240A002010B50248FFF72EFC1C
:1044500010BDC046240A0020C36C70B504000D00D6
:10446000002B0AD0A8001B18186800280ED002687C
:104470001A6000230361C36070BD2122042100F093
:1044800023FD031EE064EDD10020F5E70126AE40D8
:10449000721D01212000920000F016FD0028F3D0CB
:1044A00045608660E5E7C046002906D04B689A0063
:1044B000C36C9B181A680A6019607047F0B5C6464D
:1044C0001F008046002300B50E000D6914310C68F2
:1044D00001332004000C5043240C5443C019070C32
:1044E000E4190004270C000C2404241810C19D4278
:1044F000EDDC002F08D0B368AB4209DD2B1D9B001B
:10450000F31801355F603561300004BC9046F0BDA2
:1045100073684046591CFFF79FFF31003369040060
:104520009A1C92000C310C30FFF734FF73689A002C
:104530004346DB6C9B181A6832601E602600DDE77C
:104540000300020C0020002A01D11B0410301A0EB7
:1045500001D108301B021A0F01D104301B019A0F40
:1045600001D102309B00002B02DB01305B0000D543
:1045700070472020FCE7C04603680200590707D0B7
:10458000D9071ED4990720D55B0803600120704726
:104590000020190401D11B0C1030FF21194201D158
:1045A00008301B0A190701D104301B09990701D1F2
:1045B00002309B08D90702D401305B0803D0136096
:1045C000E5E70020E3E72020E1E79B080360022005
:1045D000DDE7C04610B50C000121FFF73DFF0123C8
:1045E0004461036110BDC046F0B54E464546DE4607
:1045F0005746E0B50D6916698946140087B0B54283
:1046000004DB33000C002E0091461D007319984600
:10461000A3686168434500DA0131FFF71DFF1422EA
:104620000300944663449B4643469B005B449A4682
:1046300000225B4651460590D34503D204C39942FC
:10464000FCD88A4614239C46A4446346049314234E
:10465000B6006644AD009C462B00E1444B440293F7
:1046600099456CD204230393230015339E4200D254
:104670007EE0341B153CA4080134A300039301968B
:1046800008E0240C31D104239C46029BE144E3441E
:104690004B4554D94B461C6823041F0C002BF0D00B
:1046A000019B5D4600269C46049C04CC29681304AB
:1046B0001B0C7B430804000C1B189819130C7B433C
:1046C000090C020C5B189B1802041E0C120C1B0434
:1046D000134308C5A445E8D8634601935B46039A93
:1046E0009E504B461C68240CCDD05B4600211B68B5
:1046F0005D4618000F00049E019A3188000C61434A
:104700000918C9191B0408041B0C03432B6008CEAD
:1047100068681B0C634307043F0CDB19090C5B182A
:104720001F0C0435B242E8D801925A4603995350FF
:1047300004239C46029BE144E3444B45AAD84346EC
:10474000002B0ADD5346424602E0013A002A03D01C
:10475000043B19680029F8D09046059B4246180092
:104760001A6107B03CBC90469946A246AB46F0BDE4
:1047700001968FE7F8B5032347461400CE461A008A
:1047800080B50E0007002240234238D1A41025D066
:10479000BD6C002D3CD0012398460023994643462A
:1047A000234208D1641019D0286800281BD00500C6
:1047B00043462342F6D02A0031003800FFF714FFA9
:1047C000002E1AD0FA6C736894469B0063441A68F2
:1047D000641032601E600600002CE5D130000CBC75
:1047E00090469946F8BD2A0029003800FFF7FCFEE4
:1047F0004B46286005000360DAE70600D2E70B4B62
:10480000013A9200D2580023FFF758FE0600BDE798
:1048100001213800FFF720FE054B0500436101230D
:1048200003610023B8640360B5E7C046507F000011
:1048300071020000F0B50C0023694546DE4657467C
:104840004E469846E0B55711B84443465D1CA368F0
:1048500083461600496883B09D4203DD01315B0049
:104860009D42FBDC5846FFF7F7FD844614300300F9
:104870000190002F0CDDBF003A0000211432624489
:1048800002C39342FCD1019B9946B9444B46019324
:104890002269230091001F2210001433304081460A
:1048A000591832422BD00132121A92460026019F2B
:1048B00048461A688240324304C7524640CBD6402D
:1048C0009942F5D822001532042391421DD2019A53
:1048D000D650002E00D0A846634642461A6163684F
:1048E00060469A005B46DB6C9B181A6822601C606D
:1048F00003B03CBC90469946A246AB46F0BD019839
:1049000004CB04C09942FBD8E6E70B1B153B9B0880
:10491000019A01339B00D650002EDDD0DBE7C04664
:1049200070B502690E690500901BB24212D1B60043
:1049300014351431AB19891901E09D420AD2043BA8
:1049400004391C680A689442F7D0944280410123DC
:104950009843013070BDC046F8B54546DE4657461F
:104960004E460B691469E0B5884615001A1BA34230
:1049700000D07DE014220E009346A4001436AB4410
:1049800033195C4402E09E4200D386E0043B043CC1
:10499000196822689142F6D000D27BE00024434699
:1049A0005968FFF759FD43461B698246C4609C461F
:1049B00098002B6900219B005B44984614235344C4
:1049C00099465D4600243018725808CD17043F0CF4
:1049D0003C191F043F0CE71B120C1B0CD31A3A1492
:1049E0009B183A04120C1C141B0413434A465350E0
:1049F0000431A845E8D85A46D143551C4144002209
:104A00008908A84500D38A0004274A44A84501D351
:104A100001318F00F6194F44B0421DD93D003100DD
:104A200008C91A04120C121914141B0C1B191204B5
:104A30001C14120C1B04134308C58842F0D801381B
:104A4000821B92089200BA18002B07D101235B4207
:104A50009846043A1368C444002BF7D05346624684
:104A60001A6150463CBC90469946A246AB46F8BDFA
:104A7000002A05DB14230E009B461436AB448DE759
:104A80002E001423143643449B4643460124A84673
:104A90001D0084E733005E46F6E70021FFF7DCFCEB
:104AA00001230361002382464361DAE7F0B5012167
:104AB0001C0083B01500089FFFF7CEFC23036400A1
:104AC00006001B0B640D02D0802252031343019396
:104AD000002D1FD068460095FFF74EFD002830D10D
:104AE000009B019D7361B5616B1E9D410135356170
:104AF000002C1AD1194B9C46194B6044EB189B00B3
:104B0000F31838605869FFF71BFD6D01099B2D1ADA
:104B10001D6013E001A8FFF72FFD019B01257361C4
:104B2000012320303361002CE4D00E4B9C4635230A
:104B300064442418181A099B3C601860300003B0C4
:104B4000F0BD019D20232A001B1A9A401300C54086
:104B5000009A019513437361C5E7C046CEFBFFFF82
:104B6000FFFFFF3FCDFBFFFF70B514000025256060
:104B7000104D4B000A005B08AB4219DC1D000543D9
:104B800016D00D4E0025314207D100220B4B02F00A
:104B900051F90A004B005B08363D094E1B15B4461F
:104BA00063445B192360074B1A40074B13431900FA
:104BB00070BDC046FFFFEF7F0000F07F0000504354
:104BC00002FCFFFFFFFF0F800000E03F002370B5F5
:104BD000064D040008002B6003F01EF8431C00D0B3
:104BE00070BD2B68002BFBD02360F9E7380A00204A
:104BF00070B50C000E25495F00F0BAFC002803DBFD
:104C0000236D1B18236570BDA389024A1340A3813D
:104C1000F9E7C046FFEFFFFFF8B50C001F000C23BB
:104C2000C95E05001600CB050AD40A4B32001940B4
:104C30002800A1810E23E15E3B0000F0DBF8F8BD07
:104C40000E23E15E0022022300F00CFC0C23E15E47
:104C5000EBE7C046FFEFFFFF70B50C000E25495F84
:104C600000F000FC431C06D08023A2895B011343A3
:104C7000A381206570BDA389014A1340A381F9E790
:104C8000FFEFFFFF10B50E23C95E00F04BF910BD1A
:104C900010B583070AD00300032102E001330B4261
:104CA00005D01A78002AF9D1181A10BD0300196826
:104CB0000C4A0D4C8A188A4322420FD15968094A7E
:104CC00004338A188A43224208D15968054A0433BA
:104CD0008A188A432242F1D000E001331A78002A70
:104CE000FBD1E1E7FFFEFEFE80808080F0B50C0086
:104CF000044303000600A40712D1032A10D9144C60
:104D0000A44666460D68134C1F002C19AC43344270
:104D10001CD10433043A1E0004313D60032AF0D84C
:104D20000024B71806E00D5D013A3555BB1A013471
:104D3000002D02D0002AF6D1F0BD0021D418002A9F
:104D4000FAD0197001339C42FBD1F5E71E00E7E76A
:104D500080808080FFFEFEFEF8B54E464546DE466A
:104D600057464B6EE0B5914606000D009B0433D5C7
:104D700013689A469368002B2CD0524612689046CE
:104D8000524652689346970819D0002402E0013435
:104D9000A74212D04246A300D15830002A0000F0AA
:104DA0008DF9431CF3D14A460023936053603CBC09
:104DB00090469946A246AB46F8BD4B469B685A467C
:104DC00003218A439B1A4A46936008229446E24490
:104DD000002BD2D10020E6E700F0B2F9E3E7C046AD
:104DE000936810B5002B02D0FFF7B6FF10BD00206E
:104DF0005360FBE770B50400080011001A0000239F
:104E0000054D2B60FBF7BCF9431C00D070BD2B682F
:104E1000002BFBD02360F9E7380A0020F0B5D64616
:104E20004F464646C0B5264F82B0060038689246C7
:104E300098468946FEF738FF224B1B680193A4234E
:104E4000019A5B00D558002D2ED06C681F2C30DCE9
:104E5000002E0FD1631C6B604B460234A4003868EF
:104E60006351FEF723FF002002B01CBC9046994618
:104E7000A246F0BD882251462800A300EB189950A5
:104E8000873AA2408930FF300168114301608421D4
:104E9000404649005850022EDCD12B008D33FF33A1
:104EA00019680A431A60D5E715004D35FF35D5500E
:104EB000CBE73868FEF7FAFE01204042D4E7C0464F
:104EC00030040020787C000010B55143FEF768FFE5
:104ED000041E0ED00300083B5A6803239A43043A89
:104EE000242A15D80300132A05D800221A605A6014
:104EF0009A60200010BD00210833016041601B2A28
:104F0000F3D98160C160242A06D003001033ECE796
:104F10000021FBF7CDFBECE7030001611833416191
:104F2000E3E7C046002370B5064D040008002B607F
:104F300002F052FE431C00D070BD2B68002BFBD04A
:104F40002360F9E7380A0020F8B506000C1E4DD0A2
:104F5000002802D0836B002B4AD00127636E3B42AE
:104F600035D00C22A35E002B40D021003000FEF78C
:104F7000E5FBE36A0500002B04D03000E1699847A7
:104F800000283CDBA3891B063ED4216B002908D0F6
:104F900023004033994202D03000FEF777FD002312
:104FA0002363616C002904D03000FEF76FFD0023FD
:104FB0006364FEF7F9FC0023A381636EDB072CD545
:104FC000A06DFEF76FFEFEF7F7FC2800F8BDA38981
:104FD0009B05CAD4A06DFEF767FE0C22A35E002BD2
:104FE000C3D1636E1D003D403B4212D00025ECE76B
:104FF0000127FEF7A9FC636E3B42B2D1E7E701252A
:10500000A3896D421B06C0D530002169FEF73EFD25
:10501000BBE7A06DFEF74AFED7E7A06DFEF746FEA0
:10502000CEE7C046F0B5CE46474680B583B0804651
:105030008946140000F00EFA012803D14B46013BCB
:10504000FE2B30D9230001AF4A46390040465C337D
:1050500000F0B2FC0600431C2BD0002821D0397888
:10506000002507E023685A1C226019700135B542FB
:1050700017D2795DA368013BA360002BF2DAA26925
:10508000934201DB0A29EDD12200404600F030FCBA
:10509000431CEBD10600300003B00CBC904699468F
:1050A000F0BD4E46F7E74B4601AFD9B20126397045
:1050B000D6E74022A3891343A381ECE7536E70B572
:1050C00005000E001400DB071ED4A1890C23D25E5C
:1050D0008B0516D580239B01194204D11A43A28166
:1050E000626E13436366280022003100FFF79AFFC7
:1050F000636E0500DB0702D4A3899B0508D5280051
:1051000070BDA06DFEF7D0FD0C23E25EA189E1E742
:10511000A06DFEF7CBFDF2E7002370B5074D04004C
:10512000080011002B6002F05FFD431C00D070BD31
:105130002B68002BFBD02360F9E7C046380A00201B
:10514000F0B54546DE4657464E46E0B5936883B017
:105150000C0090460090002B23D08B891A0728D58D
:105160000A69002A25D0424616689A072DD50027DD
:10517000AB4B00259946BA46002D5AD02B004D4521
:1051800000D9A74B5246E1690098676AB8470028E2
:1051900061DD43469B6882442D1A181A4346986085
:1051A000EAD1002003B03CBC90469946A246AB46EB
:1051B000F0BD21000098FDF75DF9002800D02CE13A
:1051C0004246A38916689A07D1D4DA074BD4002245
:1051D00091468022920000279346002F24D05A4601
:1051E000A568134200D186E0AA46BD4200D9B5E0C9
:1051F0009022D200134200D0C7E0206852464946B0
:1052000000F05AF9A3685D1BA5603D0000272368E4
:105210005344236043469B68A9445D1B43469D60FD
:10522000BFD0A389002FDAD132687768914608365B
:10523000D3E7336875689A4608369DE759462A00D1
:1052400000F03AF9236821005B1900982360FEF70B
:1052500015FB002827D00C22A35E40220120134317
:10526000A38140429EE7002300279A4600209B46E8
:10527000B146002F28D0002830D05646BE4200D973
:105280003E00206822696369904203D9A2689D1894
:10529000AE42D3DCB3426CDC656A5A46E1690098E1
:1052A000A847051ED7DD53465B1B9A460120002BFD
:1052B00058D043469B68AB447F1B5D1B43469D60B3
:1052C00000D16EE7002FD6D14B461B689B464B465C
:1052D0005F6808239C46E144002FF5D03A000A217C
:1052E0005846FFF71DF8002800D18DE05B460130DD
:1052F000C31A9A46C1E720682369984216D86369A1
:105300009A46BB4212D8474B38009F4200D94648C4
:10531000514600F009FC5346656A43434A46E16939
:105320000098A847051E96DD7F1B73E7BD4200D994
:105330003D002A00494600F0BFF8A36822685B1BC5
:105340005219A3602260002BEED121000098FEF7D5
:1053500095FA002800D07EE77F1B5BE73D00BA4648
:1053600020684BE721000098FEF788FA0028A0D0BB
:1053700071E73200594600F09FF8A36835009B1B87
:10538000A36023689B1923608DE760692268216907
:10539000551A42001218D00F8218681C5210C019FA
:1053A00092460195904201D9824602005B051AD5CA
:1053B00011000098FEF7F4FC051E28D0019A21691F
:1053C000FEF7E8FFA389194A134080221343A38103
:1053D0005246019B2561E818D31A3D00BA46206069
:1053E0006261A3600AE7009800F0D6F8051EEFD1CD
:1053F000009D21692800FEF749FB8022A389934381
:10540000743A1BB22A6028E77E1CB24636E70C23AA
:10541000009A13600C22A35E1FE701204042C1E600
:1054200000FCFF7FFEFFFF7FFFFFFF7F7FFBFFFF93
:10543000002370B5064D040008002B6002F0DCFB71
:10544000431C00D070BD2B68002BFBD02360F9E714
:10545000380A00209423024A5B00D05C7047C046A3
:105460004408002070B50400080011001A00002351
:10547000054D2B6002F0C8FB431C00D070BD2B68AB
:10548000002BFBD02360F9E7380A002082B0002906
:105490000AD0002A0BD0002B0BD013780B601078A9
:1054A000431E984102B0704701A9002AF3D10020A1
:1054B000F8E702204042F5E7F0B5C64600B588425D
:1054C0000CD98B18984209D2531E002A03D0CA5C0B
:1054D000C254013BFBD204BC9046F0BD0F2A0BD84E
:1054E0000500561E002AF6D00023CC5C1A00EC54AE
:1054F00001339642F9D1EEE703270D003E00054344
:105500000C0003002E402F422CD11500103D2D0918
:10551000AC462D01A846804425681F001D606568C3
:105520005D60A5689D60E5681034DD601033474517
:10553000F2D165460F230C2401352D014919134082
:105540004519144211D08C59AC5104369C1B032CC4
:10555000F9D80324043B9B0801339B00ED18C918BC
:105560002240BEE70500561EBEE71A00B9E7C04656
:1055700070B50400080011001A000023054D2B60CF
:10558000FAF71AFE431C00D070BD2B68002BFBD02D
:105590002360F9E7380A0020F0B557464546DE4655
:1055A0004E46E0B50C000700904683B0002900D1BC
:1055B000CBE045460B35FEF73FFF162D70D8102582
:1055C0001023A84570D82600083E71680322080001
:1055D000904381460096984200DB99E0C34A301818
:1055E000934692689446824200D1C4E0426801909A
:1055F0000092012292465046009A824301989446B6
:105600008346DC44624650465268024200D092E033
:105610000320009ACB4682439446E3449B4500DB3B
:105620001AE152460A420FD103213268B21A924659
:1056300052688A436146511849448B4699423FDA81
:105640004A4493469A4240DA41463800FEF7A8FBA6
:105650008046002820D07368B44600930123009947
:10566000020099430B00083A6344934200D1FAE0E8
:105670004A46043A242A00D9FAE00300132A00D942
:10568000C5E02200116819605168596092689A60FB
:1056900021003800FEF7FAF93800FEF7D5FE07E0E2
:1056A00007239D432B1E8CDA0C233B600023984676
:1056B000404603B03CBC90469946A246AB46F0BD7E
:1056C000019AD3689268D3609A6053465246DB6869
:1056D00092685646D3609A604A46043A0836242AAD
:1056E00000D99EE03300132A09D9534621689960F6
:1056F0006168D9601B2A00D9C8E0083410332268D9
:10570000D9461A6062685A60A268340056469A60A8
:105710004B465B1B0F2B1DD8012249467368134073
:105720000B4373604E4473681A4372603800FEF78F
:105730008BFEA046BCE7084200D085E70321326813
:10574000B21A924652688A437AE71100FEF728FBA4
:105750008046ADE70120726871190240034315438A
:1057600075604B604E4473680831184370603800B0
:10577000FEF78CF9DAE762465068032290430D3257
:1057800082469446CA44AC44E24552DACA0700D580
:105790005AE73168721A0321924652688A431018F8
:1057A0000100494400918C4500DD49E753465246CB
:1057B000DB689268D3609A6008234A465344043AEF
:1057C0009846242A7CD8132A08D953462168996020
:1057D0006168D9601B2A78D80834103322681A60AF
:1057E00062685A60A2689A60534659195B4699608C
:1057F000009B38005A1B01231A434A6052465268E4
:1058000013401D4353465D60FEF71EFE50E72168BE
:105810000160616841601B2A2ED8220008330832DB
:1058200030E7210030003400FFF746FED9465646E7
:105830006EE75B460098A0464119996053465A1B93
:1058400001231A434A6041680B401D4345603800FC
:105850000091FEF7F9FD2BE7019AD946D3689268CB
:10586000D3609A6054E703225B68934399444FE7FF
:105870002100FFF721FE0BE7A1688160E168C160AC
:10588000242A0CD0220010331032FBE6A1681961E3
:10589000E1685961242A0BD0103418332FE72269AC
:1058A0000100026122006069183218334861E9E69C
:1058B00022699A61524661692033D16118341EE72A
:1058C00021001800FFF7F8FD8EE7A1681961E16873
:1058D0005961242A02D0103418337FE722699A6173
:1058E000524661692033D161183477E734040020CF
:1058F000F8B505000E001400002802D0836B002BC1
:105900004BD0A369A289A3600C23E05E13071FD5C7
:105910002369002B1CD0FF21F7B20E4080218901A2
:105920000A4226D022686169D31A99422CDD0133DC
:10593000A1680139A160511C2160177062699A4207
:105940002ED0A389DB0701D50A2E29D03000F8BD5F
:1059500021002800FCF78EFD002827D1FF21F7B297
:105960000E408021A28989010C23E05E23690A424E
:10597000D8D101430F4AA181616E0A406266616914
:105980002268D31A9942D2DC21002800FDF776FF65
:1059900000280BD101232268CAE7FDF7D5FFB0E745
:1059A00021002800FDF76AFF0028CFD001267642AB
:1059B000CCE7C046FFDFFFFF70B504001D0084B0D8
:1059C000002909D0E0230B48C6582B002000B0471F
:1059D000431C0AD004B070BDE023064A01A9D65882
:1059E0002B000022B047431CF4D100232B608A33E4
:1059F0002360EFE744080020002909D0FF2A02D8DD
:105A000001200A7070478A23036001204042F9E7B1
:105A10000020F7E7002243088B4274D303098B422E
:105A20005FD3030A8B4244D3030B8B4228D3030C6E
:105A30008B420DD3FF22090212BA030C8B4202D310
:105A40001212090265D0030B8B4219D300E0090A38
:105A5000C30B8B4201D3CB03C01A5241830B8B4241
:105A600001D38B03C01A5241430B8B4201D34B032A
:105A7000C01A5241030B8B4201D30B03C01A52418F
:105A8000C30A8B4201D3CB02C01A5241830A8B4214
:105A900001D38B02C01A5241430A8B4201D34B02FD
:105AA000C01A5241030A8B4201D30B02C01A524161
:105AB000CDD2C3098B4201D3CB01C01A5241830915
:105AC0008B4201D38B01C01A524143098B4201D34F
:105AD0004B01C01A524103098B4201D30B01C01A7A
